:1000000024EF00F00000000000EF00F0000000000E
:0A0010000000000000000000F3D71C
:0A001C00155202E1010E156E1200EC
:100026000900F5CFE6FF0006FBE10106F9E1120043
:10003600EA50E25C02E1E950E15C02E2E66AF8D7E6
:020046001200A6
:1000480062EC00F052EC00F0E5DF0F013A6B94949B
:100058008B94D00E0C6EC90E0D6E0D2EFED70C2E85
:10006800FCD7000000008B84050E0B6E0F0E0C6E83
:10007800F10E0D6E0D2EFED70C2EFCD70B2EFAD7D7
:10008800FB0E8B16680E0C6EE40E0D6E0D2EFED751
:0A0098000C2EFCD70000E7D7FFD7BD
:1000A40010EE15F0010E006E010E016EA20EF66E3A
:0E00B400000EF76E000EF86E13EC00F0120056
:0E00C40010EE15F000EE16F01BEC00F012002E
:0100A200005D
:020000040030CA
:0D000100331F3CFFBF85FF0FC00FE00F4015
:00000001FF
