:100000009CEF03F00000000000EF00F00000000093
:0A0010000000000000000000F3D71C
:10001C000B6A0A6A096A086A0E6A033408360450C5
:10002C00085E0550D8A0053C095E0650D8A0063CD9
:10003C000A5E0750D8A0073C0B5EE86AD8A0010EF8
:10004C000E5E0336070E0C6E0334083609360A367C
:10005C000B360E36045003A012D0085E0550D8A003
:10006C00053C095E0650D8A0063C0A5E0750D8A095
:10007C00073C0B5EE86AD8A0010E0E5E11D0082674
:10008C000550D8B0053C09260650D8B0063C0A26C7
:10009C000750D8B0073C0B26E86AD8B0010E0E26E4
:1000AC0003360C2ED1D70234083609360A360B36F5
:1000BC000E36045003A012D0085E0550D8A0053CA3
:1000CC00095E0650D8A0063C0A5E0750D8A0073C33
:1000DC000B5EE86AD8A0010E0E5E11D00826055002
:1000EC00D8B0053C09260650D8B0063C0A26075065
:1000FC00D8B0073C0B26E86AD8B0010E0E260236A3
:10010C00070E0C6E0234083609360A360B360E36DC
:10011C00045002A012D0085E0550D8A0053C095E20
:10012C000650D8A0063C0A5E0750D8A0073C0B5ED0
:10013C00E86AD8A0010E0E5E11D008260550D8B082
:10014C00053C09260650D8B0063C0A260750D8B004
:10015C00073C0B26E86AD8B0010E0E2602360C2E90
:10016C00D1D70134083609360A360B360E36045010
:10017C0002A012D0085E0550D8A0053C095E0650BE
:10018C00D8A0063C0A5E0750D8A0073C0B5EE86A74
:10019C00D8A0010E0E5E11D008260550D8B0053C33
:1001AC0009260650D8B0063C0A260750D8B0073CA2
:1001BC000B26E86AD8B0010E0E260136070E0C6E1F
:1001CC000134083609360A360B360E36045001A0B7
:1001DC0012D0085E0550D8A0053C095E0650D8A088
:1001EC00063C0A5E0750D8A0073C0B5EE86AD8A014
:1001FC00010E0E5E11D008260550D8B0053C09261C
:10020C000650D8B0063C0A260750D8B0073C0B263F
:10021C00E86AD8B0010E0E2601360C2ED1D7003468
:10022C00083609360A360B360E36045001A012D0A9
:10023C00085E0550D8A0053C095E0650D8A0063CC7
:10024C000A5E0750D8A0073C0B5EE86AD8A0010EE6
:10025C000E5E11D008260550D8B0053C0926065074
:10026C00D8B0063C0A260750D8B0073C0B26E86AE3
:10027C00D8B0010E0E260036070E0C6E0034083670
:10028C0009360A360B360E36045000A012D0085E22
:10029C000550D8A0053C095E0650D8A0063C0A5E65
:1002AC000750D8A0073C0B5EE86AD8A0010E0E5E82
:1002BC0011D008260550D8B0053C09260650D8B0F8
:1002CC00063C0A260750D8B0073C0B26E86AD8B083
:1002DC00010E0E2600360C2ED1D700B00ED00450D5
:1002EC0008260550D8B0053C09260650D8B0063C67
:0C02FC000A260750D8B0073C0B26120061
:10030800220E0C6E086A096A0A6A0B6A0C06D8B4CF
:100318001FD0D8900B320A32093208320332023227
:1003280001320032D8A0F2D70C06D8B409D0045054
:1003380008260550092206500A2207500B22EAD740
:10034800045008260550092206500A2207500B229D
:02035800120091
:10035A003BC000F0003600900036009000C0C2FF9B
:10036A00C280150E0C6EC60E0D6E0D2EFED70C2E0B
:10037A00FCD70000C282C2A201D0FDD7C4CF03F0CD
:10038A00000E046E03C001F0006AC3500012000E92
:04039A00011212003A
:10039E00086A096A100E0C6E0134083609360450CC
:1003AE00085E0550D8A0053C095ED8B007D00450B1
:1003BE0008260550D8B0053C0926D89000360136DF
:0603CE000C2EEAD712001C
:1003D400086A080E0C6E003408360450085ED8B063
:0E03E40002D00826D89000360C2EF5D7120055
:1003F20031C004F032C005F0000E066E076E15C063
:1004020000F016C001F0000E026E036E7CDF0A0ED1
:10041200046E000E056E000E066E000E076E73DF90
:1004220000C033F001C034F002C035F003C036F032
:10043200FF0E0026010E0122000E0222000E0322F0
:10044200FF0E046E030E056E000E066E000E076EA2
:10045200E4DD00C033F001C034F002C035F003C067
:1004620036F00350000808E10250000805E101508F
:10047200270802E100500F0808E20F0E336E270E24
:10048200346E000E356E000E366E33C000F034C08E
:0404920001F0120063
:1004960031C004F032C005F0000E066E076E04C0CF
:1004A60033F005C034F006C035F007C036F015C08D
:1004B60000F016C001F0000E026E036E22DF00C0CF
:1004C60033F001C034F002C035F003C036F0FF0E41
:1004D6000026010E0122000E0222000E0322FF0E4C
:1004E600046E030E056E000E066E000E076E93DD9B
:1004F60000C033F001C034F002C035F003C036F05E
:100506000A0E046E000E056E000E066E000E076ED5
:1005160082DD00C033F001C034F002C035F003C004
:1005260036F00350000808E10250000805E10150CA
:10053600270802E100500F0808E20F0E336E270E5F
:10054600346E000E356E000E366E33C000F034C0C9
:0405560001F012009E
:10055A000A0E046E000E056E31C000F032C001F0C2
:10056A0019DF08C000F009C001F033C0E1FF34C050
:10057A00E2FF00C0E6FF0A0E046E000E056E31C0EF
:10058A0000F032C001F006DF0A0E046E000E056E9E
:10059A0001DF08C000F009C001F035C0E1FF36C034
:1005AA00E2FF00C0E6FF640E046E000E056E31C065
:1005BA0000F032C001F0EEDE0A0E046E000E056E87
:1005CA00E9DE08C000F009C001F037C0E1FF38C019
:1005DA00E2FF00C0E6FFE80E046E030E056E31C0AE
:1005EA0000F032C001F0D6DE0A0E046E000E056E6F
:1005FA00D1DE08C000F009C001F039C0E1FF3AC0FD
:08060A00E2FF00C0E6FF120050
:100612000900F5CFE6FF0006FBE10106F9E1120051
:04062200896A1200CF
:10062600EA50E25C02E1E950E15C02E2E66AF8D7F0
:020636001200B0
:10063800020E0F013C6F9682C16AA90EC06E1200AD
:100648000A0E046E31C000F0C1DE08C000F0980E3A
:100658000024F66E080EF76E000EF722000EF86EF4
:0C066800000EF8220900F5CF00F012008F
:1006740031C001F0010E006E015004E0003600901C
:0A068400FF0FFBD700C089FF120032
:10068E00060E3B6E63DE00C004F001C005F0000EE6
:10069E00066E076E15C000F016C001F0000E026E59
:1006AE00036E2BDE0A0E046E000E056E000E066E35
:1006BE00000E076E22DE00C031F001C032F002C023
:1006CE0033F003C034F0FF0E0026010E0122000E9F
:1006DE000222000E0322FF0E046E030E056E000EA4
:1006EE00066E000E076E93DC00C031F001C032F0D2
:1006FE0002C033F003C034F00350000808E102508A
:10070E00000805E10150270802E100500F0808E239
:10071E000F0E316E270E326E000E336E000E346EDB
:0A072E0031C000F032C001F01200EB
:1007380052EC04F0880E156E130E166E296A2A6A9A
:100748002B6A2C6A2D6A2E6A0F01386B396B3B6B4A
:10075800796A786A956A92909292929492968C6A43
:100768005CDF66DF90DF2E6A080E2E5C1FE22EC06B
:1007780000F0000E016E003600900136190E0024BC
:100788002F6E000E0120306E060E3B6EE2DD00C0BB
:1007980031F001C032F029DE2FC0E1FF30C0E2FFA6
:1007A80000C0E6FF01C0E6FF2E2ADED72950000A66
:1007B8001DE1060E3B6ECDDD00C031F001C032F008
:1007C80066DE00C031F001C032F02D0E336E000E2F
:1007D800346E2C0E356E000E366E2B0E376E000EF4
:1007E800386E2A0E396E000E3A6EB3DE16DF8C6A4A
:1007F800D50E0D6E0D2EFED72950000A06E12DC02C
:1008080031F01EDF00C08CFF28D02950010A06E114
:100818002CC031F015DF00C08CFF1FD02950020A10
:1008280010E12A50000A05E12B50000A02E1176A7C
:1008380005D02BC031F004DF00C017F017C08CFFC3
:100848000CD02A50000A02E1186A05D02AC031F0FB
:10085800F7DE00C018F018C08CFF29C031F006DFA1
:100868000A0E0C6E580E0D6E0D2EFED70C2EFCD7F0
:100878000000D3DE8C6AD50E0D6E0D2EFED7292A08
:10088800040E295CD8B0296A006A016A00D0FFD733
:0E08A40010EE15F000EE17F013EC03F012004A
:0A0898003F065B4F666D7D077F6F22
:020000040030CA
:0D000100331F3CFFBF85FF0FC00FE00F4015
:00000001FF
