:1000000055EF00F00000000000EF00F000000000DD
:0A0010000000000000000000F3D71C
:10001C00050E0B6E0F0E0C6EF10E0D6E0D2EFED727
:0A002C000C2EFCD70B2EFAD71200A1
:10003600070E156E155000080FE215C001F0010EEF
:10004600006E015004E000360090FF0FFBD700C0A1
:0A0056008BFFE1DF1506EED7120064
:100060000900F5CFE6FF0006FBE10106F9E1120009
:10007000EA50E25C02E1E950E15C02E2E66AF8D7AC
:0200800012006C
:10008200156A080E155C0FE215C001F0010E006E34
:10009200015004E000360090FF0FFBD700C08BFF39
:0800A200BCDF152AEED71200A5
:1000AA0060EC00F0946A010E8B6EE6DFB2DFBEDF11
:0600BA00B0DFFBD7FFD709
:0200C00012002C
:020000040030CA
:0D000100331F3CFFBF85FF0FC00FE00F4015
:00000001FF
