:100000003FEF00F00000000000EF00F000000000F3
:0A0010000000000000000000F3D71C
:10001C00EA50E25C02E1E950E15C02E2E66AF8D700
:02002C001200C0
:10002E00000E81B0010E016E1550010A15E101504E
:10003E00000A12E1020E0B6E380E0C6EAD0E0D6E36
:10004E000D2EFED70C2EFCD70B2EFAD781B004D076
:10005E00156A010E006E03D001C015F0006A120081
:10006E000900F5CFE6FF0006FBE10106F9E11200FB
:10007E0050EC00F0010E156E0F01396B3A6B938048
:10008E0094908B90CDDF0052D8A48B70FBD7FFD706
:0E00A00010EE15F000EE16F00EEC00F012005F
:020000040030CA
:0D000100331F3CFFBF85FF0FC00FE00F4015
:00000001FF
