:100000003AEF03F00000000000EF00F000000000F5
:0A0010000000000000000000F3D71C
:10001C000B6A0A6A096A086A0E6A033408360450C5
:10002C00085E0550D8A0053C095E0650D8A0063CD9
:10003C000A5E0750D8A0073C0B5EE86AD8A0010EF8
:10004C000E5E0336070E0C6E0334083609360A367C
:10005C000B360E36045003A012D0085E0550D8A003
:10006C00053C095E0650D8A0063C0A5E0750D8A095
:10007C00073C0B5EE86AD8A0010E0E5E11D0082674
:10008C000550D8B0053C09260650D8B0063C0A26C7
:10009C000750D8B0073C0B26E86AD8B0010E0E26E4
:1000AC0003360C2ED1D70234083609360A360B36F5
:1000BC000E36045003A012D0085E0550D8A0053CA3
:1000CC00095E0650D8A0063C0A5E0750D8A0073C33
:1000DC000B5EE86AD8A0010E0E5E11D00826055002
:1000EC00D8B0053C09260650D8B0063C0A26075065
:1000FC00D8B0073C0B26E86AD8B0010E0E260236A3
:10010C00070E0C6E0234083609360A360B360E36DC
:10011C00045002A012D0085E0550D8A0053C095E20
:10012C000650D8A0063C0A5E0750D8A0073C0B5ED0
:10013C00E86AD8A0010E0E5E11D008260550D8B082
:10014C00053C09260650D8B0063C0A260750D8B004
:10015C00073C0B26E86AD8B0010E0E2602360C2E90
:10016C00D1D70134083609360A360B360E36045010
:10017C0002A012D0085E0550D8A0053C095E0650BE
:10018C00D8A0063C0A5E0750D8A0073C0B5EE86A74
:10019C00D8A0010E0E5E11D008260550D8B0053C33
:1001AC0009260650D8B0063C0A260750D8B0073CA2
:1001BC000B26E86AD8B0010E0E260136070E0C6E1F
:1001CC000134083609360A360B360E36045001A0B7
:1001DC0012D0085E0550D8A0053C095E0650D8A088
:1001EC00063C0A5E0750D8A0073C0B5EE86AD8A014
:1001FC00010E0E5E11D008260550D8B0053C09261C
:10020C000650D8B0063C0A260750D8B0073C0B263F
:10021C00E86AD8B0010E0E2601360C2ED1D7003468
:10022C00083609360A360B360E36045001A012D0A9
:10023C00085E0550D8A0053C095E0650D8A0063CC7
:10024C000A5E0750D8A0073C0B5EE86AD8A0010EE6
:10025C000E5E11D008260550D8B0053C0926065074
:10026C00D8B0063C0A260750D8B0073C0B26E86AE3
:10027C00D8B0010E0E260036070E0C6E0034083670
:10028C0009360A360B360E36045000A012D0085E22
:10029C000550D8A0053C095E0650D8A0063C0A5E65
:1002AC000750D8A0073C0B5EE86AD8A0010E0E5E82
:1002BC0011D008260550D8B0053C09260650D8B0F8
:1002CC00063C0A260750D8B0073C0B26E86AD8B083
:1002DC00010E0E2600360C2ED1D700B00ED00450D5
:1002EC0008260550D8B0053C09260650D8B0063C67
:0C02FC000A260750D8B0073C0B26120061
:10030800220E0C6E086A096A0A6A0B6A0C06D8B4CF
:100318001FD0D8900B320A32093208320332023227
:1003280001320032D8A0F2D70C06D8B409D0045054
:1003380008260550092206500A2207500B22EAD740
:10034800045008260550092206500A2207500B229D
:02035800120091
:10035A0045C000F0003600900036009000C0C2FF91
:10036A00C280150E0C6EC60E0D6E0D2EFED70C2E0B
:10037A00FCD70000C282C2A201D0FDD7C4CF03F0CD
:10038A00000E046E03C001F0006AC3500012000E92
:04039A00011212003A
:10039E00086A096A100E0C6E0134083609360450CC
:1003AE00085E0550D8A0053C095ED8B007D00450B1
:1003BE0008260550D8B0053C0926D89000360136DF
:0603CE000C2EEAD712001C
:1003D400086A080E0C6E003408360450085ED8B063
:0E03E40002D00826D89000360C2EF5D7120055
:1003F2003BC004F03CC005F0000E066E076E15C04F
:1004020000F016C001F0000E026E036E7CDF0A0ED1
:10041200046E000E056E000E066E000E076E73DF90
:1004220000C03DF001C03EF002C03FF003C040F00A
:10043200FF0E0026010E0122000E0222000E0322F0
:10044200FF0E046E030E056E000E066E000E076EA2
:10045200E4DD00C03DF001C03EF002C03FF003C049
:1004620040F00350000808E10250000805E1015085
:10047200270802E100500F0808E20F0E3D6E270E1A
:100482003E6E000E3F6E000E406E3DC000F03EC05C
:0404920001F0120063
:100496000A0E046E000E056E3BC000F03CC001F073
:1004A6007BDF08C000F009C001F03DC0E1FF3EC09F
:1004B600E2FF00C0E6FF0A0E046E000E056E3BC0AA
:1004C60000F03CC001F068DF0A0E046E000E056EF7
:1004D60063DF08C000F009C001F03FC0E1FF40C083
:1004E600E2FF00C0E6FF640E046E000E056E3BC020
:1004F60000F03CC001F050DF0A0E046E000E056EDF
:100506004BDF08C000F009C001F041C0E1FF42C066
:10051600E2FF00C0E6FFE80E046E030E056E3BC068
:1005260000F03CC001F038DF0A0E046E000E056EC6
:1005360033DF08C000F009C001F043C0E1FF44C04A
:08054600E2FF00C0E6FF120015
:10054E000A0E046E3BC000F03EDF08C000F0EF0E56
:10055E000024F66E080EF76E000EF722000EF86EEF
:0C056E00000EF8220900F5CF00F012008A
:10057A00020E0F013C6F9682C16AA90EC06E12006C
:10058A00EA50E25C02E1E950E15C02E2E66AF8D78D
:02059A0012004D
:10059C000900F5CFE6FF0006FBE10106F9E11200C8
:1005AC003BC001F0010E006E015004E000360090DB
:0A05BC00FF0FFBD700C089FF1200FB
:1005C600060E456EC7DE00C004F001C005F0000E41
:1005D600066E076E15C000F016C001F0000E026E22
:1005E600036E8FDE0A0E046E000E056E000E066E9A
:1005F600000E076E86DE00C03BF001C03CF002C074
:100606003DF003C03EF0FF0E0026010E0122000E53
:100616000222000E0322FF0E046E030E056E000E6C
:10062600066E000E076EF7DC00C03BF001C03CF022
:1006360002C03DF003C03EF00350000808E102503E
:10064600000805E10150270802E100500F0808E202
:100656000F0E3B6E270E3C6E000E3D6E000E3E6E7C
:0A0666003BC000F03CC001F01200A0
:04067000896A120081
:100674007EEC04F0880E156E130E166E176A186A57
:10068400196A1A6A1B6A1C6A1D6A1E6A1F6A206A32
:10069400216A226A236A246A256A266A276A0F0164
:1006A400386B396B3B6B796A786A956A929092924F
:1006B400929492968C6ADADF5EDF83DF00C01EF0CC
:1006C40001C01FF01C6A080E1C5C33E21CC000F061
:1006D400000E016E003600900136290E0024396E9A
:1006E400000E01203A6E060E456E35DE00C03BF06A
:1006F40001C03CF07CDE39C0E1FF3AC0E2FF00C03B
:10070400E6FF01C0E6FF1CC000F0000E016E0036DB
:1007140000900136290E0024D96E000E0120DA6EF5
:10072400DE502426DE502522000E262227221C2AF3
:10073400CAD7030E046E24C000F025C001F026C001
:1007440002F027C003F0045007E003320232013202
:100754000032039EFF0FF8D700C022F001C023F03F
:100764001750000A73E1204A212A000E215C02E19D
:10077400FA0E205C56E3206A216A1DC000F0000EC8
:10078400016E003600900136290E0024D96E000E49
:100794000120DA6EDE50245EDE50255A000E265A01
:1007A400275A060E456ED7DD00C03BF001C03CF071
:1007B4001EDE00C01EF001C01FF01DC002F0000EBE
:1007C400036E023602900336290E0224E16E000EF7
:1007D4000320E26E00C0E6FF01C0E6FF1E5024269F
:1007E4001F502522000E262227221D2A080E1D5CDA
:1007F400D8B01D6A030E046E24C000F025C001F0B9
:1008040026C002F027C003F0045007E0033202328E
:1008140001320032039EFF0FF8D700C022F001C05E
:1008240023F022C03BF023C03CF01B0E3D6E000EB3
:100834003E6E1A0E3F6E000E406E190E416E000E93
:10084400426E180E436E000E446E23DE0FDF8C6A78
:10085400D50E0D6E0D2EFED71750000A06E11BC0F3
:100864003BF073DE00C08CFF1FD01750010A06E175
:100874001AC03BF06ADE00C08CFF16D01750020A83
:1008840007E119C03BF061DE800E00108C6E0CD0C5
:100894001850000A02E1286A05D018C03BF055DE62
:1008A40000C028F028C08CFF17C03BF07DDE0A0E84
:1008B4000C6E580E0D6E0D2EFED70C2EFCD70000BC
:1008C400D5DE8C6AD50E0D6E0D2EFED7172A040EBA
:0A08D400175CD8B0176A44D7FFD7AD
:0E08FC0010EE15F000EE17F0C5EC02F0120041
:0108DE000019
:0108DF000018
:0108E0000017
:0108E1000016
:0108E2000015
:0108E3000014
:0108E4000013
:0208E500000011
:0208E70000000F
:0208E90000000D
:0408EB000000000009
:0A08EF003F065B4F666D7D077F6FCB
:020000040030CA
:0D000100331F3CFFBF85FF0FC00FE00F4015
:00000001FF
