:10000000F4EF00F00000000000EF00F0000000003E
:0A0010000000000000000000F3D71C
:10001C00086A080E0C6E003408360450085ED8B01E
:0E002C0002D00826D89000360C2EF5D7120010
:10003A00086A096A100E0C6E013408360936045033
:10004A00085E0550D8A0053C095ED8B007D0045018
:10005A0008260550D8B0053C0926D8900036013646
:06006A000C2EEAD7120083
:100070000A0E046E1CC000F0D1DF08C000F0140EA0
:100080000024F66E030EF76E000EF722000EF86ED7
:0C009000000EF8220900F5CF00F012006D
:10009C001CC001F0010E006E015004E0003600900F
:0A00AC00FF0FFBD700C089FF120010
:1000B6000900F5CFE6FF0006FBE10106F9E11200B3
:1000C6000A0E046E000E056E1CC000F01DC001F085
:1000D600B1DF08C000F009C001F01EC0E1FF1FC07B
:1000E600E2FF00C0E6FF0A0E046E000E056E1CC09D
:1000F60000F01DC001F09EDF0A0E046E000E056EB4
:1001060099DF08C000F009C001F020C0E1FF21C05E
:10011600E2FF00C0E6FF640E046E000E056E1CC012
:1001260000F01DC001F086DF0A0E046E000E056E9B
:1001360081DF08C000F009C001F022C0E1FF23C042
:10014600E2FF00C0E6FFE80E046E030E056E1CC05B
:1001560000F01DC001F06EDF0A0E046E000E056E83
:1001660069DF08C000F009C001F024C0E1FF25C026
:08017600E2FF00C0E6FF1200E9
:04017E00896A120078
:10018200EA50E25C02E1E950E15C02E2E66AF8D799
:02019200120059
:10019400020E0F013C6F9682C16AA90EC06E120056
:1001A4001CC000F0003600900036009000C0C2FF72
:1001B400C280150E0C6EC60E0D6E0D2EFED70C2EC3
:1001C400FCD70000C282C2A201D0FDD7C4CF03F085
:1001D400000E046E03C001F0006AC3500012000E4A
:0401E40001121200F2
:1001E80090EC01F0156A166A176A186A196A1A6A91
:1001F8001B6A0F01386B396B3B6B796A786A956AB1
:1002080092909292929492968C6AB5DFBFDF1550C5
:10021800000A26E1060E1C6EC1DF00C01AF001C0FC
:100228001BF00150270802E100500F0804E20F0EEE
:100238001A6E270E1B6E1AC01CF01BC01DF0190E7B
:100248001E6E000E1F6E180E206E000E216E170E09
:10025800226E000E236E160E246E000E256E2FDF02
:100268008ADF8C6A040E0B6E400E0C6E260E0D6E25
:100278000D2EFED70C2EFCD70B2EFAD700001550EA
:10028800000A06E119C01CF0EFDE00C08CFF17D091
:100298001550010A06E118C01CF0E6DE00C08CFF0C
:1002A8000ED01550020A06E117C01CF0DDDE00C0B2
:1002B8008CFF05D016C01CF0D7DE00C08CFF15C01F
:1002C8001CF0E8DE250E0B6E870E0C6E8B0E0D6E85
:1002D8000D2EFED70C2EFCD70B2EFAD700000000EF
:1002E8004ADF8C6A040E0B6E400E0C6E260E0D6EE5
:1002F8000D2EFED70C2EFCD70B2EFAD70000152A90
:0C030800040E155CD8B0156A82D7FFD730
:020320001200C9
:0A0314003F065B4F666D7D077F6FAB
:020000040030CA
:0D000100331F3CFFBF85FF0FC00FE00F4015
:00000001FF
